{
  "_format": "hh-sol-artifact-1",
  "contractName": "Notes",
  "sourceName": "contracts/Notes.sol",
  "abi": [
    {
      "inputs": [
        {
          "internalType": "string",
          "name": "_note",
          "type": "string"
        }
      ],
      "name": "createNote",
      "outputs": [],
      "stateMutability": "nonpayable",
      "type": "function"
    },
    {
      "inputs": [],
      "name": "getNotes",
      "outputs": [
        {
          "components": [
            {
              "internalType": "string",
              "name": "note",
              "type": "string"
            },
            {
              "internalType": "address",
              "name": "uid",
              "type": "address"
            }
          ],
          "internalType": "struct Notes.Note[]",
          "name": "",
          "type": "tuple[]"
        }
      ],
      "stateMutability": "view",
      "type": "function"
    },
    {
      "inputs": [
        {
          "internalType": "uint256",
          "name": "",
          "type": "uint256"
        }
      ],
      "name": "notes",
      "outputs": [
        {
          "internalType": "string",
          "name": "note",
          "type": "string"
        },
        {
          "internalType": "address",
          "name": "uid",
          "type": "address"
        }
      ],
      "stateMutability": "view",
      "type": "function"
    }
  ],
  "bytecode": "0x608060405234801561001057600080fd5b506105cf806100206000396000f3fe608060405234801561001057600080fd5b50600436106100415760003560e01c806361c3a7e614610046578063b4af200d14610070578063e1250ab414610085575b600080fd5b610059610054366004610388565b61009a565b6040516100679291906103ee565b60405180910390f35b61007861015f565b6040516100679190610418565b6100986100933660046104ad565b610263565b005b600081815481106100aa57600080fd5b90600052602060002090600202016000915090508060000180546100cd9061055e565b80601f01602080910402602001604051908101604052809291908181526020018280546100f99061055e565b80156101465780601f1061011b57610100808354040283529160200191610146565b820191906000526020600020905b81548152906001019060200180831161012957829003601f168201915b505050600190930154919250506001600160a01b031682565b60606000805480602002602001604051908101604052809291908181526020016000905b8282101561025a57838290600052602060002090600202016040518060400160405290816000820180546101b69061055e565b80601f01602080910402602001604051908101604052809291908181526020018280546101e29061055e565b801561022f5780601f106102045761010080835404028352916020019161022f565b820191906000526020600020905b81548152906001019060200180831161021257829003601f168201915b50505091835250506001918201546001600160a01b0316602091820152918352929092019101610183565b50505050905090565b6040805180820190915281815233602080830191909152600080546001810182559080528251805160029092027f290decd9548b62a8d60345a988386fc84ba6bc95484008f6362f93160ef3e56301926102c2928492909101906102ef565b5060209190910151600190910180546001600160a01b0319166001600160a01b0390921691909117905550565b8280546102fb9061055e565b90600052602060002090601f01602090048101928261031d5760008555610363565b82601f1061033657805160ff1916838001178555610363565b82800160010185558215610363579182015b82811115610363578251825591602001919060010190610348565b5061036f929150610373565b5090565b5b8082111561036f5760008155600101610374565b60006020828403121561039a57600080fd5b5035919050565b6000815180845260005b818110156103c7576020818501810151868301820152016103ab565b818111156103d9576000602083870101525b50601f01601f19169290920160200192915050565b60408152600061040160408301856103a1565b905060018060a01b03831660208301529392505050565b60006020808301818452808551808352604092508286019150828160051b87010184880160005b8381101561048957888303603f1901855281518051878552610463888601826103a1565b918901516001600160a01b0316948901949094529487019492509086019060010161043f565b509098975050505050505050565b634e487b7160e01b600052604160045260246000fd5b6000602082840312156104bf57600080fd5b813567ffffffffffffffff808211156104d757600080fd5b818401915084601f8301126104eb57600080fd5b8135818111156104fd576104fd610497565b604051601f8201601f19908116603f0116810190838211818310171561052557610525610497565b8160405282815287602084870101111561053e57600080fd5b826020860160208301376000928101602001929092525095945050505050565b600181811c9082168061057257607f821691505b6020821081141561059357634e487b7160e01b600052602260045260246000fd5b5091905056fea2646970667358221220c97667c25698525b95e2b9d4bad1956327d7142975fde317b584ae1c1e56f2b164736f6c63430008090033",
  "linkReferences": {},
  "deployedLinkReferences": {}
}